{
  "_format": "hh-sol-artifact-1",
  "contractName": "game",
  "sourceName": "contracts/Game.sol",
  "abi": [
    {
      "inputs": [],
      "stateMutability": "payable",
      "type": "constructor"
    },
    {
      "inputs": [],
      "name": "getBalance",
      "outputs": [
        {
          "internalType": "uint256",
          "name": "",
          "type": "uint256"
        }
      ],
      "stateMutability": "view",
      "type": "function"
    },
    {
      "inputs": [
        {
          "internalType": "uint256",
          "name": "_guess",
          "type": "uint256"
        }
      ],
      "name": "guess",
      "outputs": [],
      "stateMutability": "nonpayable",
      "type": "function"
    }
  ],
  "bytecode": "0x608060405261037e806100136000396000f3fe608060405234801561001057600080fd5b50600436106100365760003560e01c806312065fe01461003b5780639189fec114610059575b600080fd5b610043610075565b60405161005091906102a6565b60405180910390f35b610073600480360381019061006e9190610199565b61007d565b005b600047905090565b600061008761014b565b9050808214156101475760003373ffffffffffffffffffffffffffffffffffffffff1667016345785d8a00006040516100bf90610271565b60006040518083038185875af1925050503d80600081146100fc576040519150601f19603f3d011682016040523d82523d6000602084013e610101565b606091505b5050905080610145576040517f08c379a000000000000000000000000000000000000000000000000000000000815260040161013c90610286565b60405180910390fd5b505b5050565b600080434042604051602001610162929190610245565b6040516020818303038152906040528051906020012060001c90508091505090565b60008135905061019381610331565b92915050565b6000602082840312156101ab57600080fd5b60006101b984828501610184565b91505092915050565b6101d36101ce826102dd565b6102f1565b82525050565b60006101e66014836102cc565b91506101f182610305565b602082019050919050565b60006102096000836102c1565b91506102148261032e565b600082019050919050565b610228816102e7565b82525050565b61023f61023a826102e7565b6102fb565b82525050565b600061025182856101c2565b602082019150610261828461022e565b6020820191508190509392505050565b600061027c826101fc565b9150819050919050565b6000602082019050818103600083015261029f816101d9565b9050919050565b60006020820190506102bb600083018461021f565b92915050565b600081905092915050565b600082825260208201905092915050565b6000819050919050565b6000819050919050565b6000819050919050565b6000819050919050565b7f4661696c656420746f2073656e64206574686572000000000000000000000000600082015250565b50565b61033a816102e7565b811461034557600080fd5b5056fea26469706673582212201855db9a4312b577db49a4be67e5cae1febf41f2cf5bf8c4b4f784e49412b41164736f6c63430008040033",
  "linkReferences": {},
  "deployedLinkReferences": {}
}