{
  "_format": "hh-sol-artifact-1",
  "contractName": "Good",
  "sourceName": "contracts/Good.sol",
  "abi": [
    {
      "inputs": [
        {
          "internalType": "address",
          "name": "_helper",
          "type": "address"
        }
      ],
      "stateMutability": "payable",
      "type": "constructor"
    },
    {
      "stateMutability": "nonpayable",
      "type": "fallback"
    },
    {
      "inputs": [],
      "name": "addrUserTolist",
      "outputs": [],
      "stateMutability": "nonpayable",
      "type": "function"
    },
    {
      "inputs": [],
      "name": "isUserEligible",
      "outputs": [
        {
          "internalType": "bool",
          "name": "",
          "type": "bool"
        }
      ],
      "stateMutability": "view",
      "type": "function"
    }
  ],
  "bytecode": "0x60806040526040516103c13803806103c183398181016040528101906100259190610080565b806000806101000a81548173ffffffffffffffffffffffffffffffffffffffff021916908373ffffffffffffffffffffffffffffffffffffffff160217905550506100f2565b60008151905061007a816100db565b92915050565b60006020828403121561009257600080fd5b60006100a08482850161006b565b91505092915050565b60006100b4826100bb565b9050919050565b600073ffffffffffffffffffffffffffffffffffffffff82169050919050565b6100e4816100a9565b81146100ef57600080fd5b50565b6102c0806101016000396000f3fe608060405234801561001057600080fd5b506004361061003a5760003560e01c8063839905821461003d578063a9faf40b1461005b5761003b565b5b005b610045610065565b604051610052919061021a565b60405180910390f35b610063610116565b005b60008060009054906101000a900473ffffffffffffffffffffffffffffffffffffffff1673ffffffffffffffffffffffffffffffffffffffff1663879df1f3336040518263ffffffff1660e01b81526004016100c191906101ff565b60206040518083038186803b1580156100d957600080fd5b505afa1580156100ed573d6000803e3d6000fd5b505050506040513d601f19601f8201168201806040525081019061011191906101b8565b905090565b60008054906101000a900473ffffffffffffffffffffffffffffffffffffffff1673ffffffffffffffffffffffffffffffffffffffff166346870d6f336040518263ffffffff1660e01b815260040161016f91906101ff565b600060405180830381600087803b15801561018957600080fd5b505af115801561019d573d6000803e3d6000fd5b50505050565b6000815190506101b281610273565b92915050565b6000602082840312156101ca57600080fd5b60006101d8848285016101a3565b91505092915050565b6101ea81610235565b82525050565b6101f981610247565b82525050565b600060208201905061021460008301846101e1565b92915050565b600060208201905061022f60008301846101f0565b92915050565b600061024082610253565b9050919050565b60008115159050919050565b600073ffffffffffffffffffffffffffffffffffffffff82169050919050565b61027c81610247565b811461028757600080fd5b5056fea26469706673582212207358410a76a772d1c79955b70620c0a54b56dd78925949193c9f0deb3dec696c64736f6c63430008040033",
  "linkReferences": {},
  "deployedLinkReferences": {}
}