{
  "contracts/Helper.sol": {
    "Helper": {
      "abi": [
        {
          "inputs": [],
          "name": "num",
          "outputs": [
            {
              "internalType": "uint256",
              "name": "",
              "type": "uint256"
            }
          ],
          "stateMutability": "view",
          "type": "function"
        },
        {
          "inputs": [
            {
              "internalType": "uint256",
              "name": "_num",
              "type": "uint256"
            }
          ],
          "name": "setNum",
          "outputs": [],
          "stateMutability": "nonpayable",
          "type": "function"
        }
      ],
      "evm": {
        "bytecode": {
          "linkReferences": {},
          "object": "608060405234801561001057600080fd5b5061012c806100206000396000f3fe6080604052348015600f57600080fd5b506004361060325760003560e01c80634e70b1dc146037578063cd16ecbf146051575b600080fd5b603d6069565b6040516048919060bf565b60405180910390f35b6067600480360381019060639190608c565b606f565b005b60005481565b8060008190555050565b60008135905060868160e2565b92915050565b600060208284031215609d57600080fd5b600060a9848285016079565b91505092915050565b60b98160d8565b82525050565b600060208201905060d2600083018460b2565b92915050565b6000819050919050565b60e98160d8565b811460f357600080fd5b5056fea264697066735822122046ca4719b4c0f2d184a5996a3a0f74b3cc1276c9942017c18deb37a52a2dbd7b64736f6c63430008040033",
          "opcodes": "PUSH1 0x80 PUSH1 0x40 MSTORE CALLVALUE DUP1 ISZERO PUSH2 0x10 JUMPI PUSH1 0x0 DUP1 REVERT JUMPDEST POP PUSH2 0x12C DUP1 PUSH2 0x20 PUSH1 0x0 CODECOPY PUSH1 0x0 RETURN INVALID PUSH1 0x80 PUSH1 0x40 MSTORE CALLVALUE DUP1 ISZERO PUSH1 0xF JUMPI PUSH1 0x0 DUP1 REVERT JUMPDEST POP PUSH1 0x4 CALLDATASIZE LT PUSH1 0x32 JUMPI PUSH1 0x0 CALLDATALOAD PUSH1 0xE0 SHR DUP1 PUSH4 0x4E70B1DC EQ PUSH1 0x37 JUMPI DUP1 PUSH4 0xCD16ECBF EQ PUSH1 0x51 JUMPI JUMPDEST PUSH1 0x0 DUP1 REVERT JUMPDEST PUSH1 0x3D PUSH1 0x69 JUMP JUMPDEST PUSH1 0x40 MLOAD PUSH1 0x48 SWAP2 SWAP1 PUSH1 0xBF JUMP JUMPDEST PUSH1 0x40 MLOAD DUP1 SWAP2 SUB SWAP1 RETURN JUMPDEST PUSH1 0x67 PUSH1 0x4 DUP1 CALLDATASIZE SUB DUP2 ADD SWAP1 PUSH1 0x63 SWAP2 SWAP1 PUSH1 0x8C JUMP JUMPDEST PUSH1 0x6F JUMP JUMPDEST STOP JUMPDEST PUSH1 0x0 SLOAD DUP2 JUMP JUMPDEST DUP1 PUSH1 0x0 DUP2 SWAP1 SSTORE POP POP JUMP JUMPDEST PUSH1 0x0 DUP2 CALLDATALOAD SWAP1 POP PUSH1 0x86 DUP2 PUSH1 0xE2 JUMP JUMPDEST SWAP3 SWAP2 POP POP JUMP JUMPDEST PUSH1 0x0 PUSH1 0x20 DUP3 DUP5 SUB SLT ISZERO PUSH1 0x9D JUMPI PUSH1 0x0 DUP1 REVERT JUMPDEST PUSH1 0x0 PUSH1 0xA9 DUP5 DUP3 DUP6 ADD PUSH1 0x79 JUMP JUMPDEST SWAP2 POP POP SWAP3 SWAP2 POP POP JUMP JUMPDEST PUSH1 0xB9 DUP2 PUSH1 0xD8 JUMP JUMPDEST DUP3 MSTORE POP POP JUMP JUMPDEST PUSH1 0x0 PUSH1 0x20 DUP3 ADD SWAP1 POP PUSH1 0xD2 PUSH1 0x0 DUP4 ADD DUP5 PUSH1 0xB2 JUMP JUMPDEST SWAP3 SWAP2 POP POP JUMP JUMPDEST PUSH1 0x0 DUP2 SWAP1 POP SWAP2 SWAP1 POP JUMP JUMPDEST PUSH1 0xE9 DUP2 PUSH1 0xD8 JUMP JUMPDEST DUP2 EQ PUSH1 0xF3 JUMPI PUSH1 0x0 DUP1 REVERT JUMPDEST POP JUMP INVALID LOG2 PUSH5 0x6970667358 0x22 SLT KECCAK256 CHAINID 0xCA SELFBALANCE NOT 0xB4 0xC0 CALLCODE 0xD1 DUP5 0xA5 SWAP10 PUSH11 0x3A0F74B3CC1276C9942017 0xC1 DUP14 0xEB CALLDATACOPY 0xA5 0x2A 0x2D 0xBD PUSH28 0x64736F6C634300080400330000000000000000000000000000000000 "
        },
        "methodIdentifiers": {
          "num()": "4e70b1dc",
          "setNum(uint256)": "cd16ecbf"
        }
      }
    }
  }
}