{
  "_format": "hh-sol-artifact-1",
  "contractName": "Good",
  "sourceName": "contracts/Good.sol",
  "abi": [
    {
      "inputs": [
        {
          "internalType": "address",
          "name": "_helper",
          "type": "address"
        }
      ],
      "stateMutability": "nonpayable",
      "type": "constructor"
    },
    {
      "inputs": [],
      "name": "helper",
      "outputs": [
        {
          "internalType": "address",
          "name": "",
          "type": "address"
        }
      ],
      "stateMutability": "view",
      "type": "function"
    },
    {
      "inputs": [],
      "name": "owner",
      "outputs": [
        {
          "internalType": "address",
          "name": "",
          "type": "address"
        }
      ],
      "stateMutability": "view",
      "type": "function"
    },
    {
      "inputs": [
        {
          "internalType": "uint256",
          "name": "_num",
          "type": "uint256"
        }
      ],
      "name": "setNum",
      "outputs": [],
      "stateMutability": "nonpayable",
      "type": "function"
    }
  ],
  "bytecode": "0x608060405234801561001057600080fd5b506040516104fb3803806104fb833981810160405281019061003291906100ce565b806000806101000a81548173ffffffffffffffffffffffffffffffffffffffff021916908373ffffffffffffffffffffffffffffffffffffffff16021790555033600160006101000a81548173ffffffffffffffffffffffffffffffffffffffff021916908373ffffffffffffffffffffffffffffffffffffffff16021790555050610140565b6000815190506100c881610129565b92915050565b6000602082840312156100e057600080fd5b60006100ee848285016100b9565b91505092915050565b600061010282610109565b9050919050565b600073ffffffffffffffffffffffffffffffffffffffff82169050919050565b610132816100f7565b811461013d57600080fd5b50565b6103ac8061014f6000396000f3fe608060405234801561001057600080fd5b50600436106100415760003560e01c806363b0e66a146100465780638da5cb5b14610064578063cd16ecbf14610082575b600080fd5b61004e61009e565b60405161005b91906102a4565b60405180910390f35b61006c6100c2565b60405161007991906102a4565b60405180910390f35b61009c60048036038101906100979190610215565b6100e8565b005b60008054906101000a900473ffffffffffffffffffffffffffffffffffffffff1681565b600160009054906101000a900473ffffffffffffffffffffffffffffffffffffffff1681565b60008054906101000a900473ffffffffffffffffffffffffffffffffffffffff1673ffffffffffffffffffffffffffffffffffffffff168160405160240161013091906102bf565b6040516020818303038152906040527fcd16ecbf000000000000000000000000000000000000000000000000000000007bffffffffffffffffffffffffffffffffffffffffffffffffffffffff19166020820180517bffffffffffffffffffffffffffffffffffffffffffffffffffffffff83818316178352505050506040516101ba919061028d565b600060405180830381855af49150503d80600081146101f5576040519150601f19603f3d011682016040523d82523d6000602084013e6101fa565b606091505b50505050565b60008135905061020f8161035f565b92915050565b60006020828403121561022757600080fd5b600061023584828501610200565b91505092915050565b610247816102f0565b82525050565b6000610258826102da565b61026281856102e5565b935061027281856020860161032c565b80840191505092915050565b61028781610322565b82525050565b6000610299828461024d565b915081905092915050565b60006020820190506102b9600083018461023e565b92915050565b60006020820190506102d4600083018461027e565b92915050565b600081519050919050565b600081905092915050565b60006102fb82610302565b9050919050565b600073ffffffffffffffffffffffffffffffffffffffff82169050919050565b6000819050919050565b60005b8381101561034a57808201518184015260208101905061032f565b83811115610359576000848401525b50505050565b61036881610322565b811461037357600080fd5b5056fea2646970667358221220f66a307ce5f5b697b723e9f35f46f10ddf2a197d73bd53913450d31eded0211664736f6c63430008040033",
  "linkReferences": {},
  "deployedLinkReferences": {}
}