{
  "_format": "hh-sol-artifact-1",
  "contractName": "Attack",
  "sourceName": "contracts/Attack.sol",
  "abi": [
    {
      "inputs": [
        {
          "internalType": "contract Good",
          "name": "_good",
          "type": "address"
        }
      ],
      "stateMutability": "nonpayable",
      "type": "constructor"
    },
    {
      "inputs": [],
      "name": "attack",
      "outputs": [],
      "stateMutability": "nonpayable",
      "type": "function"
    },
    {
      "inputs": [],
      "name": "good",
      "outputs": [
        {
          "internalType": "contract Good",
          "name": "",
          "type": "address"
        }
      ],
      "stateMutability": "view",
      "type": "function"
    },
    {
      "inputs": [],
      "name": "helper",
      "outputs": [
        {
          "internalType": "address",
          "name": "",
          "type": "address"
        }
      ],
      "stateMutability": "view",
      "type": "function"
    },
    {
      "inputs": [],
      "name": "num",
      "outputs": [
        {
          "internalType": "uint256",
          "name": "",
          "type": "uint256"
        }
      ],
      "stateMutability": "view",
      "type": "function"
    },
    {
      "inputs": [],
      "name": "owner",
      "outputs": [
        {
          "internalType": "address",
          "name": "",
          "type": "address"
        }
      ],
      "stateMutability": "view",
      "type": "function"
    },
    {
      "inputs": [
        {
          "internalType": "uint256",
          "name": "_num",
          "type": "uint256"
        }
      ],
      "name": "setNum",
      "outputs": [],
      "stateMutability": "nonpayable",
      "type": "function"
    }
  ],
  "bytecode": "0x608060405234801561001057600080fd5b506040516105b83803806105b88339818101604052810190610032919061008e565b80600360006101000a81548173ffffffffffffffffffffffffffffffffffffffff021916908373ffffffffffffffffffffffffffffffffffffffff16021790555050610112565b600081519050610088816100fb565b92915050565b6000602082840312156100a057600080fd5b60006100ae84828501610079565b91505092915050565b60006100c2826100db565b9050919050565b60006100d4826100b7565b9050919050565b600073ffffffffffffffffffffffffffffffffffffffff82169050919050565b610104816100c9565b811461010f57600080fd5b50565b610497806101216000396000f3fe608060405234801561001057600080fd5b50600436106100625760003560e01c80634e70b1dc1461006757806363b0e66a146100855780638da5cb5b146100a35780639e5faafc146100c1578063aa8fb40b146100cb578063cd16ecbf146100e9575b600080fd5b61006f610105565b60405161007c91906103bd565b60405180910390f35b61008d61010b565b60405161009a919061036c565b60405180910390f35b6100ab61012f565b6040516100b8919061036c565b60405180910390f35b6100c9610155565b005b6100d3610288565b6040516100e09190610387565b60405180910390f35b61010360048036038101906100fe9190610307565b6102ae565b005b60025481565b60008054906101000a900473ffffffffffffffffffffffffffffffffffffffff1681565b600160009054906101000a900473ffffffffffffffffffffffffffffffffffffffff1681565b600360009054906101000a900473ffffffffffffffffffffffffffffffffffffffff1673ffffffffffffffffffffffffffffffffffffffff1663cd16ecbf3073ffffffffffffffffffffffffffffffffffffffff166040518263ffffffff1660e01b81526004016101c691906103bd565b600060405180830381600087803b1580156101e057600080fd5b505af11580156101f4573d6000803e3d6000fd5b50505050600360009054906101000a900473ffffffffffffffffffffffffffffffffffffffff1673ffffffffffffffffffffffffffffffffffffffff1663cd16ecbf60016040518263ffffffff1660e01b815260040161025491906103a2565b600060405180830381600087803b15801561026e57600080fd5b505af1158015610282573d6000803e3d6000fd5b50505050565b600360009054906101000a900473ffffffffffffffffffffffffffffffffffffffff1681565b33600160006101000a81548173ffffffffffffffffffffffffffffffffffffffff021916908373ffffffffffffffffffffffffffffffffffffffff16021790555050565b6000813590506103018161044a565b92915050565b60006020828403121561031957600080fd5b6000610327848285016102f2565b91505092915050565b610339816103d8565b82525050565b61034881610414565b82525050565b61035781610438565b82525050565b6103668161040a565b82525050565b60006020820190506103816000830184610330565b92915050565b600060208201905061039c600083018461033f565b92915050565b60006020820190506103b7600083018461034e565b92915050565b60006020820190506103d2600083018461035d565b92915050565b60006103e3826103ea565b9050919050565b600073ffffffffffffffffffffffffffffffffffffffff82169050919050565b6000819050919050565b600061041f82610426565b9050919050565b6000610431826103ea565b9050919050565b60006104438261040a565b9050919050565b6104538161040a565b811461045e57600080fd5b5056fea264697066735822122048b70a520e765cc53ea3552b3db6beb6304a14cc318180576931a2602ff3450964736f6c63430008040033",
  "linkReferences": {},
  "deployedLinkReferences": {}
}